:06000000020069020E1768
:03000B0002312E91
:03001300023107B0
:03001B0002314F60
:03002300023400A4
:03002B00020E6C56
:0300330002329402
:03003B000234018B
:03004300020100B7
:03004B0002297017
:03005300020100A7
:03005B0002310867
:030063000231095E
:0500C200C2000200660F
:03006600020EA5E2
:2001C000AF82BF033B7800E2B4EE35787C74DFF2743408F29034DFE493787EF2E408F29075
:2001E000E0001226D67D007EE090E6B57401F090E6B3EEF090E6B4EDF090E6A07480F0227C
:2002000078A3EFF2780079A4E2F39034D5022D1D78827401F2E408F2746008F27880E4F2B8
:2002200008F2788504F2E408F2788704F2758251122707E58260407801E2B4FF028038782F
:2002400001E2B4C201227801E2B4C02B788274C0F2743F08F2E408F27880740CF2E408F235
:2002600078857440F2E408F2788704F2758251122707E582600122903FC074F9F0787C7442
:2002800023F2743508F2787E7410F2E408F2903FC11226D6903FD1E4F0A3F0A3F0A3F0226F
:2002A000AF821FC2D575F002EF30E704B2D5F404A430D50AF42401C5F0F43400C5F024C520
:2002C000F582743435F0F583E493FEA3E4938E82F583227E2E7F34903FC0E0FDBDF9028026
:2002E0001C740C2EFCE43FFD903FC0E0FB7A004302038C828D83EBF0EAA3F0802074082E2C
:20030000F582E43FF58374B4F07404A3F0740A2EF582E43FF5837413F07486A3F0903FE92E
:20032000E0601E90343CE493F5821202A0787C74E9F2743F08F2787E7416F2E408F2122645
:20034000D6903FFFE030E01E90343DE493F5821202A0787C7434F2743508F2787E7407F2B4
:20036000E408F21226D690343EE493F5821202A0AE82AF83903FC0E0C4540F24408E828FF2
:2003800083F074012EFCE43FFD903FC0E0FB740F5B24308C828D83F074032EFEE43FFF8E2E
:2003A000828F83787C74C1F2743F08F2787E7410F2E408F20226D620000C7802E254056058
:2003C00003D2B522C2B522AF827802E24FF20203B7AF827802E25F600FEFF4FF7802E25F56
:2003E000F21203B7758201227582002230010A90E6A07401F07481F022D20122AF82BF006A
:20040000028026BF01028005BF021A800C758200C00712226BD0078010758201C0071222CF
:200420006BD00780047582002278A2EFF27803E4F27804F278A514F278A6F29034D5122F16
:20044000AB75820122AF8278A2E2B40102800878A2E2B4020F80067806E4F2800B78067453
:2004600001F28004758200227805E2B4011C8FF005F078667401800225E0D5F0FBF278063E
:20048000E2F582C0071222C6D007EF2403F87905E3F278A5EFF2780579A6E2F39034D512F0
:2004A0002FAB75820122E5822403F9E390E740F090E6B57401F090E68AE4F090E68B04F0DE
:2004C00090E6A003F02290E6B8E0FF235401F508BFC0028008BF40028003020E0BE508706A
:2004E0001190E6B9E0FFBFB009C20190E6A07480F02290E6B9E0FFE4BFA90104FE7008BFF2
:20050000100280030206AE7F0090E6BA7809E0F2A3E008F290E6BE780BE0F2A3E008F27D8E
:2005200000EE60057F510205B290E6BCE0FAA3E0FEC374039AE49E4079EA2A90053F738068
:2005400006800A800E80127F517D0680657F527D08805F7F537D0880597809E2FA08E2FE09
:20056000C3E49A74109E404AC002C006780BE2FA08E2FEC3E49A74109ED006D0024033C081
:2005800002C0067809790BE3C5F0E225F0FA09E3C5F008E235F0FEC3E49A74109ED006D04E
:2005A00002400F7F517D0674702EFE7809EAF2EE08F2C201EF7003020E0B780BE2F5F008B0
:2005C000E245F0700122780BE2FA08E2FEC3EA9440EE940040027A40E508604D90E6A0E09B
:2005E00020E1F978827440F274E708F2E408F27885EAF2E408F278097980E2F308E209F342
:2006000078877401F28F82122707E5827003020E0B90E6B57401F090E68AE4F090E68BEADF
:20062000F090E6A07480F0805390E6B57401F090E68AE4F090E68BF090E6A07480F090E638
:20064000A0E020E1F9788C7440F274E708F2E408F2788FEAF2E408F27809798AE2F308E23F
:2006600009F378917401F27892EDF2789374FFF28F82122797E5827003020E0BC005780B97
:20068000E2FE08E2FD7C00EEC39AFEED9CFD780BEEF2ED08F27809E2FB08E2FEEA2BFAECBD
:2006A0003EFC7809EAF2EC08F2D0050205BABF1302800302073890E6BAE0FE90E6BEE0FC71
:2006C000A3E0FDC2018E82C005C0041211A7E582D004D0057003020E0BE508603590E6A03E
:2006E000E020E1F98C067815EEF290E740C0061211D6E582D0067003020E0B90E6B5740140
:20070000F090E68AE4F090E68BEEF090E6A07480F02290E6B57401F090E68AE4F090E68BB5
:20072000F090E6A07480F090E6A0E020E1F97816ECF290E740021207E508604BBF12489060
:20074000E6BEE0FDA3E0FEBD013DBE003AC20190E6A0E020E1F9121080E58260027402FE12
:200760007802E2FDEE420590E740EDF090E6B57401F090E68AE4F090E68B04F090E6A003E5
:20078000F07582010203D1E5086003020865BF1102800302086590E6BCE0FDA3E0FE4D60DB
:2007A00023C0077807E2FB08E2FC0BBB00010C8D028E07EAB50306EFB504028005D0070266
:2007C0000865D0078E0790E6BEE0FBA3E0FCC201ED4F7027789AE4F2789B7410F2E408F2CD
:2007E000903FD5F5F0C007C005C004C003122971121095D003D004D005D007EB4C605E8B27
:20080000028C06C3EA9440EE940040027A4090E6B57401F090E68AE4F090E68BF090E6A0DA
:200820007480F090E6A0E020E1F97813EAF290E740C007C005C004C003C00212110ED002EE
:20084000D003D004D005D0078B098C0A7E00E509C39AFAE50A9EFE8A038E04809E7807ED24
:20086000F2EF08F222BF180280030208F890E6BEE0FDA3E0FEBD1005BE000280028079C2BC
:2008800001E508603690E6A0E020E1F9787C74D5F2743F08F2787E7410F2E408F290E74007
:2008A0001226D690E6B57401F090E68AE4F090E68B7410F090E6A07480F022121162E58249
:2008C0007003020E0B90E6B57401F090E68AE4F090E68BF090E6A07480F090E6A0E020E144
:2008E000F9787C7440F274E708F2787E7410F2E408F2903FD50226D6BF1402800302098839
:2009000090E6BEE0FDA3E0FEBD0205BE00028002807690E6BCE0FEC201E508603490E6A0DF
:20092000E020E1F9781C7440F274E708F28E821213C8E5827003020E0B90E6B57401F0903C
:20094000E68AE4F090E68B7402F090E6A07480F02290E6B57401F090E68AE4F090E68B74F7
:2009600002F090E6A07480F090E6A0E020E1F978187440F274E708F28E821212A1E5827064
:20098000067582010203C722E5086069BF156690E6BEE0FDA3E0FEBD025BBE005890E6BC87
:2009A000E0FEC20190E6A0E020E1F9903FC0E0FDBD3200401278417440F274E708F28E8235
:2009C000121B8FAD82801078257440F274E708F28E8212163AAD82ED7003020E0B90E6B5BD
:2009E0007401F090E68AE4F090E68B7402F090E6A07480F022BF16028003020AF090E6BEB1
:200A0000E0FDA3E0FEBD0405BE00028003020AF090E6BCE0FEC201E508606990E6A0E020D4
:200A2000E1F9903FC0E0FDBD3200401E784E7440F274E708F2785074022440F2E434E708C7
:200A4000F28E82121D9EAD82801C78337440F274E708F2783574022440F2E434E708F28E56
:200A600082121845AD82ED7003020E0B90E6B57401F090E68AE4F090E68B7404F090E6A0F8
:200A80007480F02290E6B57401F090E68AE4F090E68B7404F090E6A07480F090E6A0E02073
:200AA000E1F9903FC0E0FDBD3200401E78457440F274E708F2784774022440F2E434E70859
:200AC000F28E82121C02AD82801C78297440F274E708F2782B74022440F2E434E708F28E87
:200AE000821216AAAD82ED70067582010203C722E5086065BF176290E6BEE0FDA3E0FEBDF1
:200B00000157BE0054C2017E0190E6A0E020E1F9903FC0E0FDBD3200401178557401F290C9
:200B2000E740C006121F02D006800D783A7401F290E740121958AE82EE7003020E0B90E6BD
:200B4000B57401F090E68AE4F090E68B04F090E6A003F07582040203D1E5087027BF192458
:200B600090E6BEE0FDA3E04D701A90E6BAE0FDA3E04D24FFE433F582C20112124490E6A03B
:200B80007480F022BF1A028003020C4F90E6BEE0FDA3E0FEBD0205BE00028003020C4F900E
:200BA000E6BCE0FEC201E508603490E6A0E020E1F978227440F274E708F28E8212156AE566
:200BC000827003020E0B90E6B57401F090E68AE4F090E68B7402F090E6A07480F02290E6A8
:200BE000B57401F090E68AE4F090E68B7402F090E6A07480F090E6A0E020E1F9782074406A
:200C0000F274E708F28E82121486E58270067582010203C7788C74E5F2743F08F2E408F256
:200C2000788A7431F2E408F2788F7404F2E408F2789104F278927408F2789374FFF2758210
:200C400051122797E58270067582010203C722BF1B028003020D0890E6BEE0FDA3E0FEBDEB
:200C60000205BE00028003020D0890E6BCE0FEC201E508604D90E6A0E020E1F9903FC0E047
:200C8000FDBD30005003020E0B78627440F274E708F2786474012440F2E434E708F28E8277
:200CA0001221ACE5827003020E0B90E6B57401F090E68AE4F090E68B7402F090E6A074808B
:200CC000F02290E6B57401F090E68AE4F090E68B7402F090E6A07480F090E6A0E020E1F94D
:200CE000903FC0E0FDBD3000401790E7407860E0F290E7417861E0F28E8212216FE58270F7
:200D0000067582010203C722E5087029BF1C2690E6BEE0FDA3E04D701C90E6BCE0FEC20120
:200D2000D20053B0C353060FEE2E25E042B090E6A07480F022E5086036BF0F3390E6BEE0EC
:200D4000FDA3E0FEBD0128BE0025C20190E6A0E020E1F990E7407403F090E6B57401F0905B
:200D6000E68AE4F090E68B04F090E6A003F022E508604ABFC04790E6BCE0FDA3E0FEBD0461
:200D80003CBE0039C201787C74F1F2743408F29034F1787EE493F2A3E49308F290E00012C6
:200DA00026D67D007EE090E6B57401F090E6B3EEF090E6B4EDF090E6A07480F022E5086055
:200DC0004ABFC04790E6BCE0FEA3E0FFBE053CBF0039C201787C7419F2743508F2903519C3
:200DE000787EE493F2A3E49308F290E0001226D67E007FE090E6B57401F090E6B3EFF090FD
:200E0000E6B4EEF090E6A07480F022C20190E6A07401F07481F022C2A832903EBDE4F0A35B
:200E2000F07582041203C7903FC0E0FFBF32004008903EBC121E80800A783AE4F2903EBC6E
:200E4000121958903EBCE0FF781874BDF2743E08F28F821212A1903FC0E0FFBF32004009C9
:200E6000903EBCE0F582121F6BD2A822200002C2B4C2CAC2CF32C0E0C082C083200002D259
:200E8000B4D2CA5391EF90E65F74F3F0D083D082D0E032020E76020E76020E76020E760262
:200EA0000E76020E7690E6007412F090E67A7401F01202101202D3121238903FC0E0FFBF53
:200EC0003200400F121AC5E582700B7582011203C780031215C112107A1221FE12310A90D5
:200EE000E611E4F012310A90E610E4F043B534D2B253B0CF75C801D2AD90E65EE043E0F377
:200F0000F0D2A8903FD1E0FCA3E0FDA3E0FEA3E0FFEC4D4E4F7003021035903FD1780DE0D3
:200F2000F2A3E008F2A3E008F2A3E008F27D527811E4F208F2D2B4C005121095D005780DC4
:200F4000E2F5F008E242F008E242F008E245F070030210137C80780DC3E2948008E2940023
:200F600008E2940008E294005004780DE2FC78827400F274E008F2E408F27885ECF2E4086B
:200F8000F278117980E2F308E209F378877401F28D82122707E58270087582011203C7803A
:200FA000727813ECF290E000C005C00412110ED004D0058C027B007E007F00780DE2C39AB9
:200FC000F208E29BF208E29EF208E29FF28C037811E2FA08E2FFEB2AFAEE3FFF7811EAF236
:200FE000EF08F27811E2F5F008E245F06003020F3E8D03EB04FDBD54028003020F3E7D51B8
:201000007811E2FA08E22470FB7811EAF2EB08F2020F3E780DE2F5F008E242F008E242F0D5
:2010200008E245F0700D121162E58270067582011203C7C2B47582011229CC30010312041F
:20104000C620A803120E1A2000F190E687E0702690E684E0FFC313FF24FC40DFEF2F901096
:1A10600062738006800C80068008D2B280CDC2B280C9B2B280C5D2B280C185
:20342E001201000200000040B720B19D0000010203020A06000200000008000009040000D5
:20344E0000FFFFFF060904000102FFFFFF070904000102FFFFFF080904010000FFFFFF0621
:20346E000904010102FFFFFF07070502020002000705040200020007058602000200070561
:20348E0088020002000902000002010480FA4A3453347734853465346E347E348C340000F0
:2034AE000902000001020580FA4A345C347734853400009334AE343C3553357D359135CD18
:2034CE0035ED35F6350B362E34403402C13408C53412034D0053004600540031003000306D
:2034EE0000C00028000000000104000100000000000000000157494E5553420000000000F7
:20350E0000000000000000000000000A00000000010500000039393939393939393939391A
:20352E00393939393900416E6F74686572007768697465717561726B207265736561726345
:20354E006800000000476C6173676F7720496E74657266616365204578706C6F72657220DF
:20356E0028676974203839366232363837290058582D5858585858585858585858585858FB
:20358E00585800506970652050206174207B327835313242204550324F55542F4550364939
:2035AE004E7D2C2051206174207B327835313242204550344F55542F455038494E7D005040
:2035CE006970652050206174207B347835313242204550324F55542F455036494E7D0044E8
:2035EE00697361626C656400446F75626C652D6275666665726564203531324200517561FD
:10360E00642D6275666665726564203531324200DE
:20107A0043B508021080308309200002D2B375820122200002C2B375820022903FC0E0FF29
:20109A00BF10028019BF20028014BF3002801EBF31028019BF32028014BF333A800F43B503
:2010BA0002C2B19000011233D0D2B18029903EBFE4F0A3F0781874BFF2743E08F275820380
:2010DA001212A19000FA1233DA43B202C2819000011233D0D28112310A90E601E053E0FC82
:2010FA00F053B2F743B31CD294C2939004B01233D002108075AF0385829B85839A90E67BD6
:20111A007813E2F8E0A2E7C2949292D294A2E6C2949292D294A2E5C2949292D294A2E4C2F0
:20113A00949292D294A2E3C2949292D294A2E2C2949292D294A2E1C2949292D294A2E0C207
:20115A00949292D294D8BD227431C29400D294D5E0F853B3E3903FC0E0FFBF10028019BF12
:20117A0020028014BF30028019BF31028014BF3202800FBF3314800A90E601E043E023F0F0
:20119A00800890E601E043E063F0021080E5827814F27582101224BEE58260197870740131
:2011BA00F2E408F2903E1475F0601224F7E5826004758201221224D675820022AE82AF8305
:2011DA007582111224BEE582601C7D0078157975E2F3E409F38E828F838DF012257DE582AF
:2011FA006004758201221224D675820022AE82AF837D0078167970E2F3E409F38E828F8305
:1E121A008DF01224F7E582600E1224D6E5827003F58222758201221224D67582002279
:20123800C2B0C2B6D2B743B5C1C2B722E5826003C2B722D2B722AF827E008F05BD0102803C
:201258000ABF02028017BD031F8016903FC0E0FFBF330050047E0C800F7E0E800B7E0D80AE
:20127800077817E270027E48EE7003F58222EE2EFE7817E24EF5821224BEE5827007122454
:20129800D67582002275820122AF827E007818E2F58208E2F583E0FCA3E0FDEF30E0027E58
:2012B80001EF30E103430640EF30E013903FE5E0FAA3E0FBC3EA9CEB9D500475820022EF3E
:2012D80030E113903FE7E0FAA3E0FBC3EA9CEB9D500475820022EC4D700EEEF452B0781A59
:2012F800E4F2781BF202137B8C028D03C3EA9472EB94064008747C9A74159B500475820054
:2013180022C006EA248EFAEB34F9FB78ACEAF2E2F5F0EBC4C5F0C4540F65F0C5F0540FC5A0
:20133800F065F0F2C5F008F290010DC007C006C005C00412312FAA82AB83D004D005D006B0
:20135800D007EBC4CAC4540F6ACA540FCA6ACAFB74E0C39AFA740F9BFE781AEEF2781BEAB8
:20137800F2D0067817E4F28F82C006C005C00412124EE582D004D005D0067003F5822278EC
:20139800707402F2E408F2903E1A75F0601224F7E58270071224D6758200221224D6E5822F
:2013B8007003F58222EC4D6003EE42B075820122AF82BF01028005BF020A80047E018008A5
:2013D8007E40800475820022EE55B07011781CE2F58208E2F583E4F0A3F0758201227817C7
:2013F8007401F28F8212124EE5827003F5822278757402F2E408F2903E1E75F06012257DE0
:20141800E5827003F58222781EE2FE7F00781FE27C004207EC4206781CE2FC08E2FDEEC4CF
:20143800CFC4540F6FCF540FCF6FCFFE74FFC39FFFE49EFE78ACEFF2EE08F2900098C005C4
:20145800C00412312F786D740AF2E408F2122432E5828583F0D004D0052472FE740635F068
:20147800FF8C828D83EEF0EFA3F075820122AF827820E2FD08E2FE8D828E83E0FBA3E0FCB3
:201498004B601D8B0B8C0CC3E50B9472E50C9406400A747C950B7415950C50047582002289
:2014B800750B1E750C36850B82850C83E493FA7003021566EA5F7003021558781C74C1F252
:2014D800743E08F28A82C007C006C005C004C0031213C8E582D003D004D005D006D0077076
:2014F80003F58222C007903EC1E0FAA3E0FFC3EB9AEC9FD0075030850B82850C83E493FAC5
:201518007818EDF2EE08F28A82C007C006C005C004C0031212A1E582D003D004D005D006F9
:20153800D0077003F58222850B82850C83A3E49325E024E5F582E4343FF583EBF0ECA3F0C2
:201558007402250BF50BE4350CF50C0214BE75820122AF827E1E7D368E038D048B828C83FB
:20157800E493FA6040EFB5022F7822E2F52E08E2F52F8E828D83A3E49325E024E5F582E41D
:20159800343FF583E0FDA3E0FE852E82852F83EDF0EEA3F07582012274022BFBE43CFC8BC3
:0915B800068C0580B77582002243
:06361E00010002010000A2
:2015C10090E670E043E001F05388FE22A982E3FE7F0009E37C004207EC4206EEC4CFC4542C
:2015E1000F6FCF540FCF6FCFFE78ACEFF2EE08F290010312312F786D740AF2E408F20224E3
:2016010032AE82AF8378ACEEF2EF08F290000A12312F786D7403F2740108F2122432AE82E7
:20162100E583C454F0CEC4CE6ECE54F0CE6EFF7824E2F9EFF309EEF322AF827D247E368DA6
:20164100038E048B828C83E493FA6059EFB502488D828E83A3E493FA78687427F27867E45C
:20166100F278697402F28A82122380E5827003F582227825E2F50D08E2F50E758227121547
:20168100CD85820F858310850D82850E83E50FF0E510A3F07582012274022BFBE43CFC8B5B
:2016A100058C06809E75820022AF82782DE4F2782EF2782F740FF27830F4F278317403F25B
:2016C1007832E4F27829E2F58208E2F583E0FDA3E0FE8D038E04C3747C9B74159C4023C017
:2016E10007782BE2FB08E2FC8B828C83E0FAA3E0FF8A118F12C3747C951174159512D00768
:20170100500475820022ED4E700C747CB511077415B5120280377824742DF28D828E83C0CF
:2017210007C004C003121602D003D0048B828C83E0FBA3E0FC7824742FF28B828C8312165E
:2017410002D00778327414F2783274D4F27D247E368D828E83E493FC7003021841EC5F7036
:201761000302183774012DFBE43EFC8B828C83E493FA786B742DF2786A7403F2786C14F221
:201781008A82C007C006C005C004C0031223D8E582D003D004D005D006D0077003F58222BA
:2017A1008B828C83E493FA786B742FF2786A7404F2786C03F28A82C007C006C005C004C01C
:2017C100031223D8E582D003D004D005D006D0077003F582228B828C83E493FA786B743147
:2017E100F2786A7401F2786CF28A82C007C006C005C004C0031223D8E582D003D004D00502
:20180100D006D0077003F582228B828C83E493FB786B7432F2786A7402F2786C14F28B82C4
:20182100C007C006C0051223D8E582D005D006D0077003F5822274022DFDE43EFE02175228
:2018410075820122AF827D247E368D038E048B828C83E493FA700302194AEFB50202800335
:2018610002193C74012DF513E43EF514851382851483E493FD78687439F278677402F27853
:201881006914F28D82122380E5827003F582227839E270217833E2F58208E2F583E4F0A3A0
:2018A100F07835E2F58208E2F583747CF07415A3F075820122851382851483E493FD78682F
:2018C1007437F278677403F2786914F28D82122380E5827003F582227833E2F51508E2F58E
:2018E100167582371215CDAA82AE83851582851683EAF0EEA3F0851382851483E493FE789A
:20190100687437F278677404F2786903F28E82122380E5827003F582227835E2F51508E2E7
:20192100F5167582371215CDAA82AE83851582851683EAF0EEA3F07582012274022BFBE4ED
:201941003CFC8B058C0602184F75820022A280B39202E433F58222AF83E582783BF2EF085C
:20196100F2783BE2F58208E2F583E4F07C247D368C828D83E4937003021A7D74012CFAE4BF
:201981003DFB8A828B83E493FF7868743DF278677401F27869F28F82C005C004C003C002C3
:2019A100122380E582D002D003D004D0057003F58222783DE27003021A73783EE4F2783BD8
:2019C100E2F58208E2F583E0FF8C828D83E4934207783BE2F58208E2F583EFF08A828B8327
:2019E100E493FF7868743EF278677402F2786914F28F82C005C004C003C002122380E58283
:201A0100D002D003D004D0057003F58222783AE260308A828B83E493FA7868743DF278675A
:201A21007401F27869F28A82C005C004122380E582D004D0057003F58222783EE24404F233
:201A41008006783EE254FBF28C828D83A3E493FF786B743EF2786A7402F2786C14F28F8223
:201A6100C005C0041223D8E582D004D0057003F5822274022CFCE43DFD0219717582012251
:06362400015402550000F4
:201A8100AF82786B743FF2786A7412F2786CE4F28F82C0071223D8E582D0077003F5822249
:201AA100783F74FFF2786B743FF2786A74D2F2786C7401F28F821223D8E5827003F582228B
:201AC100758201227E2A7F368E828F83E49360378E828F83A3E493FCA3E493FD8C828D83F1
:201AE100E4F08E828F83A3A3A393F582C007C006121A81E582D006D0077003F5822274042A
:201B01002EFEE43FFF80C175820122E582F904F8E2FF7E007D008D258E248F238E22E3FA40
:201B2100E4FBFFE523420378AEEAF2EB08F2EE08F2EF08F2900005E4F5F0123151AC82ADF4
:201B410083AEF0C313FFEE13FEED13FDEC13FCEFC313EE13ED13FDEC13F5828D8322AE82FC
:201B6100AF83EE2EF582EF33F583E5822582F582E58333F583786D7405F2E408F2122432D7
:201B8100AE82AF837840E2F9EEF309EFF322AF827D2A7E368D038E048B828C83E493FA60C6
:201BA1005CEFB5024B8D828E83A3A3A3E493FA78687443F278677488F278697402F28A82B2
:201BC100122380E5827003F582227841E2F52608E2F527758243121B0C85822885832985C8
:201BE1002682852783E528F0E529A3F07582012274042BFBE43CFC8B058C06809B75820067
:201C010022AF827849E4F2784AF2784B74F8F2784C747FF2784D74FFF27845E2F58208E231
:201C2100F583E0FDA3E0FE8D038E04C3747C9B74159C401DC0077847E2FB08E2FC8B828CF9
:201C410083E0FAA3E0FFC3747C9A74159FD007500475820022ED4E601E78407449F28D82BC
:201C61008E83C007C004C003121B5FD003D004D007784DE254FEF28B828C83E0FDA3E0FE95
:201C81008D038E04BB7C05BC150280167840744BF28D828E83C007121B5FD007784DE254CE
:201CA100FDF27D2A7E368D828E83E493FC7003021D9AEC5F7003021D9074032DFBE43EFCF0
:201CC1008B828C83E493FA786B7449F2786A7458F2786C7402F28A82C007C006C005C004D6
:201CE100C0031223D8E582D003D004D005D006D0077003F582228B828C83E493FA786B7493
:201D01004BF2786A7457F2786C7402F28A82C007C006C005C004C0031223D8E582D003D09E
:201D210004D005D006D0077003F582228B828C83E493FA786B744DF2786A74D2F2786C747B
:201D410001F28A82C007C006C005C004C0031223D8E582D003D004D005D006D0077003F5A5
:201D610082228B828C83E493FB786B744DF2786A7403F2786CE4F28B82C007C006C0051224
:201D810023D8E582D005D006D0077003F5822274042DFDE43EFE021CA775820122AF827D03
:201DA1002A7E368D038E048B828C83E493FA7003021E7CEFB502028003021E6E74032DF534
:201DC1002AE43EF52B852A82852B83E493FD78687452F278677458F278697402F28D82121F
:201DE1002380E5827003F58222784EE2F52C08E2F52D758252121B0CAA82AE83852C828560
:201E01002D83EAF0EEA3F0852A82852B83E493FE78687452F278677457F278697402F28ED2
:201E210082122380E5827003F582227852E2FEBEF8197853E2FEBE7F127850E2F58208E279
:201E4100F583747CF07415A3F0801E7850E2F52C08E2F52D758252121B0CAA82AE83852C08
:201E610082852D83EAF0EEA3F07582012274042BFBE43CFC8B058C06021DA875820022AECB
:201E810082AF83E4F07C2A7D368C828D83E493606C8C828D83A3A3A3E493FB78687454F2EC
:201EA10078677480F2786923F28B82C007C006C005C004122380E582D004D005D006D007D1
:201EC1007003F582227854E2540F60288E828F83E0FB8C828D83E49342038E828F83EBF088
:201EE1008C828D83A3E493FAA3E493FB8A828B837854E2F074042CFCE43DFD808C75820120
:201F010022AE82AF83E4F07C2A7D368C828D83E493FB6055C00374012CF52EE43DF52F8579
:201F21002E82852F83E493FAA3E493FB8A828B83E0540F7004D0038027D0038E828F83E013
:201F410042038E828F83EBF07855E26013852E82852F83E493FAA3E493FB8A828B83E4F03C
:201F610074042CFCE43DFD80A222AF827D2A7E368D828E83E493FC700302208BEC5F700361
:201F810002208174032DFBE43EFC8B828C83E493FA78687456F278677458F278697402F2D1
:201FA1008A82C007C006C005C004C003122380E582D003D004D005D006D0077003F58222EA
:201FC1008B828C83E493FA78687458F278677457F278697402F28A82C007C006C005C004CE
:201FE100C003122380E582D003D004D005D006D0077003F582228B828C83E493F582C007FB
:20200100C006C005C004C003121A81E582D003D004D005D006D0077003F582228B828C8348
:20202100E493FA786B7456F2786A7458F2786C7402F28A82C007C006C005C004C003122389
:20204100D8E582D003D004D005D006D0077003F582228B828C83E493FB786B7458F2786AFA
:202061007457F2786C7402F28B82C007C006C0051223D8E582D005D006D0077003F58222F5
:0E20810074042DFDE43EFE021F7175820122E3
:0C362A0001C33E4002C43E41000000000D
:20208F00AF827E008F05BD01028005BF020880047E2080027E21EE7003F58222EE2EFE7811
:2020AF005AE24EF5821224BEE5827003F5822275820122AF82785AE4F28F8212208FE5827D
:2020CF00603878707401F2E408F2903E5B75F0601224F7E582602378707401F2E408F2906A
:2020EF003E5C75F0601224F7E582600E1224D6E5827003F58222758201221224D6758200D4
:20210F0022AF82785AE4F28F82C00712208FE582D007604578707401F2E408F2903E5D756C
:20212F00F0601224F7E5826030785A7401F28F8212208FE5826022785EE2FD08E2FE7F000C
:20214F0078757401F2E408F28D828E838FF012257DE5826004758201221224D675820022E1
:20216F00AF82785B7401F27861795CE2F38F82C0071220C2E582D0077003F582227860E292
:20218F00F4F2785B7403F27860795CE2F38F821220C2E5827003F5822275820122AF827851
:2021AF005D7401F27864795EE2F308E209F38F82C007122110E582D0077003F58222785DA4
:2021CF007403F27862795EE2F308E209F38F82122110E5827003F582227862E2FE08E2FFB1
:0F21EF008E828F83E0F48E828F83F075820122BF
:2021FE0012310A90E60B7403F012310A90E6017480F012310A90E6047480F012310A90E676
:20221E0009E4F012310A90E6027498F012310A90E60374FEF012310A90E670E043E080F034
:20223E0012310A90E618E053E0FEF012310A90E619E053E0FEF012310A90E61AE053E0FED9
:20225E00F012310A90E61BE053E0FEF022E582FF60067E007D0080047E027D8012310A90CA
:20227E00E6047480F012310A90E61274A04EF012310A90E61374204DF012310A90E6147459
:20229E00E04EF012310A90E61574604DF0EF60047E0180027E037866EEF28F821222C61269
:2022BE00310A90E604E4F022AF827866E25401605F12310A90E618E4F012310A90E604E0FA
:2022DE0043E002F012310A90E6497482F012310A90E6497482F0EF601212310A90E6497406
:2022FE0082F012310A90E6497482F012310A90E6187410F012310A90E61AE4F012310A907F
:20231E00E604E043E006F012310A90E61A7404F07866E25402604A12310A90E619E4F012F5
:20233E00310A90E604E043E004F012310A90E6497484F012310A90E6497484F012310A900E
:20235E00E6197410F012310A90E61BE4F012310A90E604E043E008F012310A90E61B740422
:02237E00F0224B
:20238000E5822582FFF5821224BEE582604378707401F2E408F2903E6775F0601224F7E582
:2023A00082602E74014FF5821224BEE58260227868E2FD7E007F6078697975E2F3E409F355
:2023C0008D828E838FF012257DE5826004758201221224D675820022E58225E0F582122487
:2023E000BEE582604678707401F2E408F2903E6A75F0601224F7E5826031786CE2601E7807
:202400006BE2FD7E007F60786C7970E2F3E409F38D828E838FF01224F7E582600E1224D6E6
:12242000E5827003F58222758201221224D675820022F8
:20243200AE82AF837C007D007B10EF235401FAEE2EFEEF33FFEC2CFCED33FDEA6003430443
:2024520001786DC3E2F5F0EC95F008E2F5F0ED95F04011786DD3E29CF4B3FCB308E29DF4F0
:0B247200FD430601DBC48E828F832235
:20247D00C007C006C000AF8290E678E020E00E786FE260F4786FE4F2758200801D90E67889
:20249D00E030E2057582008011EF600B90E678E0035401F5828003758201D000D006D007B1
:2024BD0022C007AF8290E6787480F090E679EFF075820112247DD00722C00790E678E030DC
:2024DD00E205758200801090E6787440F090E678E020E6F9758201D00722C007C006C004D0
:2024FD00C003C002C000AFF0AE83E5827872F2EE08F2EF08F27870E2F5F008E245F0700553
:20251D00758201804E7B007C007870E2B5030708E2B50402802A7872E22BFA08E23CFE08EC
:20253D00E2FF8A828E838FF012340590E679F075820112247DE58260070BBB00CC0C80C977
:20255D007870E2B5030808E2B50403D38001C3E433F582D000D002D003D004D006D0072271
:20257D00C007C006C005C004C003C002C001C000AFF0AE83E5827877F2EE08F2EF08F278C1
:20259D0075E2F5F008E245F070067582010226C57875E2FB08E2FCBB0109BC000690E67843
:2025BD007420F090E679E07B007C00787AE4F208F2787A7975E2F5F0E3B5F00C08E2F5F0E8
:2025DD0009E3B5F00302269F75820012247DE58270030226B2787AE2FD08E2FE74022DFDCC
:2025FD00E43EFE7875E2B5050708E2B506028002800690E6787420F0787AE2FD08E2FE0D27
:20261D00BD00010E7875E2B5050708E2B506028002803575AF03759AE6759B7890E67B745A
:20263D0040F0E0ACE07877797AE3C5F0E225F0FD09E3C5F008E235F0FE08E2FF8D828E83BC
:20265D008FF0EC12311380257877797AE3C5F0E225F0FD09E3C5F008E235F0FE08E2FF9062
:20267D00E679E0FA8D828E838FF0123113787AE22401F208E23400F2787AE2FB08E2FC025D
:20269D0025CE90E678E030E205758200801A90E678E020E6F97875E2B5030808E2B50403B2
:1926BD00D38001C3E433F582D000D001D002D003D004D005D006D00722A1
:2026D600AA82AB83787CE2FC08E2FD787EE2FE08E2FFEE60010FEF601775AF078A9B8B9AD9
:1126F6008C9E8D9D90E67CE090E67BF0DEF6DFF42203
:20270700C007C006C001C000AF827887E260127881E2FE7888EEF27880E2FE7889EEF2802E
:20272700087880E2FE7888EEF2EF2FFFF5821224BEE582604C7887E2FE0E7870EEF2E40896
:20274700F2903E8875F0601224F7E582603374014FF5821224BEE582602778857975E2F361
:2027670008E209F37882E2F58208E2F58308E2F5F012257DE5827004F582800B75820180DF
:20278700061224D6758200D000D001D006D00722C007C006C005C004C003C002C001C0009D
:2027A700AF827894E4F208F2EF2FFFF5821224BEE58270030229407892E2F5F005F07B01F6
:2027C7007C008006EB2BFBEC33FCD5F0F77894798FC3E3F5F0E295F009E3F5F008E295F0C2
:2027E70040030229407891E26012788BE2FA7896EAF2788AE2FA7897EAF28008788AE2FACF
:202807007896EAF27891E2FA0A7870EAF2E408F2903E9675F0601224F7E58270030229409B
:20282700C007788AE2F58208E2F5838B028C0778BAEAF2EF08F2C007C004C003C002C00125
:20284700C000123296AD82AE83D000D001D002D003D004D007EAC39DFAEF9EFF7898EAF2CA
:20286700EF08F2788F7994E3F5F0C3E295F0FE09E3F5F008E295F0FF7898C3E2F5F0EE9508
:20288700F008E2F5F0EF95F0D0075020788F7994E3F5F0C3E295F0C0E009E3F5F008E295C1
:2028A700F0C0E07899D0E0F218D0E0F2788C7994E3C5F0E225F0FA09E3C5F008E235F0FDCD
:2028C70008E2FE78987970E2F308E209F38A828D838EF01224F7E582605F1224D6E5827085
:2028E70004F58280737E007893E2600B7893C3E2F5F0EE95F0500C8F821224BEE58270034A
:202907000E80E47893E2B50605758200804A788A7998E3C5F0E225F0F209E3C5F008E2357C
:20292700F0F278947998E3C5F0E225F0F209E3C5F008E235F0F20227D41224D67894798F51
:20294700E2F5F0E3B5F00C08E2F5F009E3B5F003D38001C3E433F582D000D001D002D003C7
:09296700D004D005D006D00722EF
:06009800E478FFF6D8FD3C
:012970003234
:20297100AFF0AE83E582789DF2EE08F2EF08F2789BE2F52E08E2F52F789BE2F5F008E24508
:20299100F0602A789DE2FA08E2FB08E2FC789AE2FFAD2EAE2F8A828B838CF0EF123113A3C7
:1B29B100AA82AB831DBDFF011EED4E70E8789DE2F58208E2F58308E2F5F02265
:2029CC00AF8278A1E4F278A2F2D2E890E668E043E008F090E65CE043E001F090E65D74011E
:2029EC00F0D2AF90E680E020E10890E680E043E002F0EF600E90E680E043E008F090000AA8
:202A0C001233DA90E680E053E0F7F022AF82BF00028037BF01028036BF02028039BF040217
:202A2C008038BF06028037BF08028036BF80028019BF8102801CBF8202801BBF8402801A60
:202A4C00BF86028019BF881E801890E6A02290E6A12290E6A22290E6A32290E6A42290E6F5
:202A6C00A52290E6A62290000022C021C0E0C0F0C082C083C007C006C005C004C003C00242
:202A8C00C001C000C0D075D000C08675860090E6B8E0FFE4BF800104FE601B90E6B9E0FDD9
:202AAC00BD061390E6BAE0FCA3E0F5827800ECF21201C0022CF5EF702A90E6B9E0FDBD0987
:202ACC002290E6BAE0F5821203FCE582600990E6A07480F0022CF590E6A07401F07481F0E3
:202AEC00022CF5EE600E90E6B9E0FDBD0806123330022CF58F05BD013290E6B9E0FDBD0B84
:202B0C002A90E6BCE0FD90E6BA7805E0F28D82120445E582600990E6A07480F0022CF5900A
:202B2C00E6A07401F07481F0022CF5E4BF810104FD601490E6B9E0FCBC0A0C90E6BCE0F518
:202B4C00821204A6022CF5EF703790E6B9E0FCBC032F90E6BAE0FBA3E0FCBB0110BC000D5A
:202B6C0078A17401F290E6A003F0022CF5BB0205BC00028003022CF590E6A07480F0022C4F
:202B8C00F5EE603590E6B9E0702F78A0E2FE78A1E225E0FC420690E740EEF090E741E4F0A6
:202BAC0090E6B504F090E68AE4F090E68B7402F090E6A07480F0022CF5ED602890E6B9E00E
:202BCC00702290E740E4F090E741F090E6B504F090E68AE4F090E68B7402F090E6A07480C0
:202BEC00F0022CF5BF02028003022C9F90E6B9E0FEBE03028008BE01028003022C9F90E6C4
:202C0C00BAE0FDA3E0FE4D6003022CF590E6BCE0F582122A18AD82AE83ED4E7003022CF5AF
:202C2C0090E6B9E0FCBC03188D828E83E0FC4304018D828E83ECF090E6A07480F0022CF549
:202C4C0090E6BCE0F582C006C00512331EE582D005D0067003022CF58D828E83E0FC5304F6
:202C6C00FE8D828E83ECF090E6BCE0FDA3E08D0453040F530580E4C423CDC423541F6DCDC1
:202C8C00541FCD6DCDFE90E683ED4CF0E043E020F08056BF824D90E6B9E0704790E6BCE03F
:202CAC00F582122A18AE82AF838E048F05EE4F60388C828D83E05401FCB40100B39203E4B0
:202CCC0033FF90E740F090E741E4F090E6B504F090E68AE4F090E68B7402F090E6A074801F
:202CEC00F0800690E6B81203EC5391EF90E65D7401F0D086D0D0D000D001D002D003D00408
:202D0C00D005D006D007D083D082D0F0D0E0D02132AE82AF8378A3E2B4012C78A4E2702718
:202D2C008E828F83E493FCA3E493FD787CECF2ED08F28C828D83E493787EF2E408F290E057
:202D4C00001226D6022F9078A3E2B4063F78A4E2703A8E828F83A3A3E493FCA3E493FD4CBC
:202D6C00700A90E6A07401F07481F0228C028D03787CEAF2EB08F28C828D83E493787EF2FB
:202D8C00E408F290E0001226D6022F9078A3E2B402028003022EAB8E828F83A3A3A3A3E465
:202DAC0093FD78A4C3E29D4003022EAB8E828F83A3A3A3A3A3E493FCA3E493FD78A4E275AD
:202DCC00F002A42CF582ED35F0F583E493FCA3E493FD74092CFFE43DFE8C028D03787CEAD7
:202DEC00F2EB08F28C828D83E493787EF2E408F290E000C007C006C005C0041226D6D0042D
:202E0C00D005D006D0078C828D83E4932400F517E434E0F5188F028E0385171985181A8A42
:202E2C00828B83E493FCA3E493FD787CECF2ED08F28C828D83E493787EF2E408F285198238
:202E4C00851A83C003C0021226D6D002D0038A828B83E493FCA3E493FD8C828D83E49325AE
:202E6C0017F517E43518F51874022AFAE43BFB8A828B83E493FCA3E4934C709D90E002E0DF
:202E8C00FCA3E04C6003022F90E517C39400FCE51894E0FD90E002ECF0EDA3F0022F907873
:202EAC00A3E2B4030474018001E4FD602278A4E2701D787C7436F2743608F2903636E4933B
:202ECC00787EF2E408F290E0001226D6022F90ED7003022F8678A4E2FC7D0024FFFAED3415
:202EEC00FFFB74072EF582E43FF583C006C007E493FF7E00C3EA9FEB64808EF063F080958F
:202F0C00F0D007D006507374082EF582E43FF583E493FEA3E493FF1CBCFF011DEC2CFCED05
:202F2C0033FDEC2EF582ED3FF583E493FEA3E493FF90E0007402F090E00104F074012401BD
:202F4C00FCE434E0FD8E828F83E493FB60360EBE00010F8C828D83EBF074012CFAE43DFBBE
:202F6C008A828B83E4F0042AFCE43BFD90E000E0FB0B0B90E000EBF080CB90E6A07401F09F
:202F8C007481F0227E007FE090E6B57401F090E6B3EFF090E6B4EEF090E6A07480F022AED7
:202FAC0082AF83A3A3A3A3A3E493FCA3E493FD74042EFEE43FFF78A7E4F28E828F83E49344
:202FCC00FA78A7C3E29A400122C006C00778A7E275F002A42CF582ED35F0F583E493FAA350
:202FEC00E493FF78A874092AF2E43F08F2752E008A828F83A3A3A3A3A3E493FF78A2E2B562
:20300C0007028007D007D0060230FED007D00678A8E2F52F08E2F530C004C005852F828511
:20302C003083E493FAA3E493FD8A828D83A3E493F5317404B531028006D005D004804AD0C4
:20304C0005D004852F82853083E493F532A3E493F533853282853383A3A3E493FA78A5E213
:20306C00B50214853282853383A3A3A3E493FA78A6E2B50202800678AAE4F2800578AA7459
:20308C0001F278AAE2F52E804C7405B53147E52E6043C004C005852F82853083E493FAA3D7
:2030AC00E493FD8A828D83A3A3E493FD740F5DFC530580E423CDC423541F6DCD541FCD6DF1
:2030CC00CD30E40244E090E683ED4CF0E043E020F0D005D0047402252FF52FE43530F530A3
:1B30EC00852F82853083E493FAA3E4934A600302302478A7E22401F2022FC6BE
:04363600040309047C
:013107003295
:200076007900E94400601B7A0090363A78C575923EE493F2A308B800020592D9F4DAF275DA
:0200960092FFD7
:013108003294
:013109003293
:03010000022A765A
:03010400023402C0
:0301080002331CA3
:03010C000233FEBD
:03011000023404B2
:030114000234288A
:0301180002331996
:03011C000201B825
:03012000020E9339
:03012400020E9632
:0301280002332D72
:03012C0002342773
:03013000020E9923
:03013400020E9C1C
:03013800020E9F15
:03013C00020EA20E
:0301400002332A5D
:030144000201B8FD
:030148000234215D
:03014C0002342258
:0301500002342353
:030154000234244E
:0301580002342549
:03015C0002342644
:0301600002340363
:030164000201B8DD
:030168000201B8D9
:03016C000201B8D5
:0301700002332C2B
:0301740002332E25
:0301780002334D02
:03017C0002334FFC
:0301800002332F18
:0301840002334EF5
:03018800023350EF
:03018C000233FF3C
:03019000023295A3
:0301940002331A19
:0301980002331D12
:03019C0002332902
:0301A0000233180F
:0301A40002331B08
:0301A800023328F7
:0301AC0002332BF0
:0301B000023150C9
:0301B400023429E9
:0101B8003214
:09310A000000000000000000229A
:1B31130020F71130F6138883A88220F509F6A8837583002280FEF280F5F022BB
:01312E00326E
:20312F00AA83AB828BF0903EACE0A4F8A9F08AF0E0A429F98BF0A3E0A429F583888222226B
:01314F00324D
:01315000324C
:20315100AF82AE83ADF0FC78B2EFF2EE08F2ED08F2EC08F278B2E2FF78B0E28FF0A4FFADBF
:20317100F078B8EFF208EDF278B2E2FF78AEE28FF0A4FFADF078B6EFF208EDF278B9E2FF7C
:2031910078B5E2FE78AEE28EF0A42FFF78B9F278B4E2FE78AFE28EF0A42F78B9F278B8E2FB
:2031B100FE08E2FF78B4E2FD78AEE28DF0A4ABF02EFEEB3FFF78B8EEF208EFF278B3E2FDF0
:2031D10078AFE28DF0A4ABF02EFEEB3FFF78B8EEF208EFF278B3E2FF78B0E28FF0A478B565
:2031F100F278B3E2FF78AEE28FF0A4FFADF078B3EFF208EDF278B2E2FF78B1E28FF0A47855
:20321100B1F278B2E2FF78AFE28FF0A4FFADF078AFEFF208EDF278AEE4F278B2F278B6E210
:20323100F52E08E2F52F08E2F53008E2F53178B2E2FA08E2FB08E2FE08E2FFEA252EF52E11
:20325100EB352FF52FEE3530F530EF3531F53178B6E52EF208E52FF208E530F208E531F297
:2032710078AEE2FC08E2FD08E2FE08E2FFEC252EFCED352FFDEE3530FEEF35318C828D8334
:033291008EF0229A
:013294003207
:013295003206
:20329600AE82AF837D007C0078BBE2235401703578BAE225E0F208E233F278BAC3E2F5F0B5
:2032B600EE95F008E2F5F0EF95F0501478BAE2F5F008E2C313C5F01318F2C5F008F280051F
:2032D6000C8C0580C378BAC3E2F5F0EE95F008E2F5F0EF95F0400E78BAD3E29EF4B3FEB35B
:2032F60008E29FF4FF78BAE2F5F008E2C313C5F01318F2C5F008F28D041DEC70C88E828F91
:02331600832210
:013318003282
:20009E0078BCE84400600A790075923EE4F309D8FC7809E84400600C7901903EBCE4F0A372
:0400BE00D8FCD9FA97
:013319003281
:01331A003280
:01331B00327F
:01331C00327E
:01331D00327D
:0A331E0090E6A07480F07582012291
:013328003272
:013329003271
:01332A003270
:01332B00326F
:01332C00326E
:01332D00326D
:01332E00326C
:01332F00326B
:1D33300090E74078A2E2F090E6B57401F090E68AE4F090E68B04F090E6A003F02259
:01334D00324D
:01334E00324C
:01334F00324B
:01335000324A
:20335100E583700BE58224FA400122B4001122E5826003D5E0FD0075E0FED583F674F9D54B
:20337100E0FD22C007C006C001C000AE82AF83EE2EF8EF33F9EE28FEEF39FF90E600E0F815
:20339100794C20E416C3EF13CE13CEFF795AE820E309C3EF13CE13CEFF7963E58124FAF838
:2033B100E926C313C313F9C3EE99F582EF9400F583D000D001D006D00750012202335174D1
:2033D10011C0E0123374158122C007C006AE82AF837411C0E0EE4F600D1EBEFF011F90036E
:0D33F100E812337480EF1581D006D007225A
:0133FE00329C
:0133FF00329B
:013400003299
:013401003298
:013402003297
:013403003296
:013404003295
:0D00690075813312342AE5826003020066BF
:1C34050020F71430F6148883A88220F507E6A88375830022E280F7E49322E022D6
:013421003278
:013422003277
:013423003276
:013424003275
:013425003274
:013426003273
:013427003272
:013428003271
:013429003270
:04342A007582002285
:00000001FF
